{
  "contractName": "Conference",
  "abi": [
    {
      "constant": true,
      "inputs": [],
      "name": "date",
      "outputs": [
        {
          "name": "",
          "type": "string"
        }
      ],
      "payable": false,
      "stateMutability": "view",
      "type": "function"
    },
    {
      "constant": true,
      "inputs": [
        {
          "name": "",
          "type": "uint256"
        }
      ],
      "name": "speakers",
      "outputs": [
        {
          "name": "speaker",
          "type": "address"
        },
        {
          "name": "speakerName",
          "type": "string"
        },
        {
          "name": "votes",
          "type": "uint256"
        }
      ],
      "payable": false,
      "stateMutability": "view",
      "type": "function"
    },
    {
      "constant": true,
      "inputs": [],
      "name": "url",
      "outputs": [
        {
          "name": "",
          "type": "string"
        }
      ],
      "payable": false,
      "stateMutability": "view",
      "type": "function"
    },
    {
      "constant": true,
      "inputs": [],
      "name": "conferenceName",
      "outputs": [
        {
          "name": "",
          "type": "string"
        }
      ],
      "payable": false,
      "stateMutability": "view",
      "type": "function"
    },
    {
      "constant": true,
      "inputs": [
        {
          "name": "",
          "type": "uint256"
        }
      ],
      "name": "confMembers",
      "outputs": [
        {
          "name": "",
          "type": "address"
        }
      ],
      "payable": false,
      "stateMutability": "view",
      "type": "function"
    },
    {
      "constant": true,
      "inputs": [],
      "name": "totalConfMembers",
      "outputs": [
        {
          "name": "",
          "type": "uint256"
        }
      ],
      "payable": false,
      "stateMutability": "view",
      "type": "function"
    },
    {
      "constant": true,
      "inputs": [],
      "name": "venue",
      "outputs": [
        {
          "name": "",
          "type": "string"
        }
      ],
      "payable": false,
      "stateMutability": "view",
      "type": "function"
    },
    {
      "constant": true,
      "inputs": [],
      "name": "entryFees",
      "outputs": [
        {
          "name": "",
          "type": "uint256"
        }
      ],
      "payable": false,
      "stateMutability": "view",
      "type": "function"
    },
    {
      "constant": true,
      "inputs": [],
      "name": "numberOfSpeakers",
      "outputs": [
        {
          "name": "",
          "type": "uint256"
        }
      ],
      "payable": false,
      "stateMutability": "view",
      "type": "function"
    },
    {
      "constant": true,
      "inputs": [],
      "name": "admin",
      "outputs": [
        {
          "name": "",
          "type": "address"
        }
      ],
      "payable": false,
      "stateMutability": "view",
      "type": "function"
    },
    {
      "constant": true,
      "inputs": [],
      "name": "freezeTime",
      "outputs": [
        {
          "name": "",
          "type": "string"
        }
      ],
      "payable": false,
      "stateMutability": "view",
      "type": "function"
    },
    {
      "inputs": [
        {
          "name": "_confName",
          "type": "string"
        },
        {
          "name": "_creator",
          "type": "address"
        }
      ],
      "payable": false,
      "stateMutability": "nonpayable",
      "type": "constructor"
    },
    {
      "anonymous": false,
      "inputs": [
        {
          "indexed": true,
          "name": "memAddr",
          "type": "address"
        },
        {
          "indexed": false,
          "name": "name",
          "type": "string"
        }
      ],
      "name": "JoinedConf",
      "type": "event"
    },
    {
      "constant": false,
      "inputs": [
        {
          "name": "_name",
          "type": "string"
        }
      ],
      "name": "joinConference",
      "outputs": [],
      "payable": false,
      "stateMutability": "nonpayable",
      "type": "function"
    },
    {
      "constant": true,
      "inputs": [],
      "name": "getConferenceDetails",
      "outputs": [
        {
          "name": "",
          "type": "address"
        },
        {
          "name": "",
          "type": "uint256"
        },
        {
          "name": "",
          "type": "string"
        },
        {
          "name": "",
          "type": "string"
        },
        {
          "name": "",
          "type": "string"
        },
        {
          "name": "",
          "type": "string"
        },
        {
          "name": "",
          "type": "string"
        },
        {
          "name": "",
          "type": "uint256"
        }
      ],
      "payable": false,
      "stateMutability": "view",
      "type": "function"
    },
    {
      "constant": false,
      "inputs": [],
      "name": "sortSpeakerList",
      "outputs": [],
      "payable": false,
      "stateMutability": "nonpayable",
      "type": "function"
    },
    {
      "constant": true,
      "inputs": [
        {
          "name": "index",
          "type": "uint256"
        }
      ],
      "name": "getSpeaker",
      "outputs": [
        {
          "name": "",
          "type": "address"
        },
        {
          "name": "",
          "type": "string"
        },
        {
          "name": "",
          "type": "uint256"
        }
      ],
      "payable": false,
      "stateMutability": "view",
      "type": "function"
    },
    {
      "constant": false,
      "inputs": [
        {
          "name": "_name",
          "type": "string"
        }
      ],
      "name": "applyAsSpeaker",
      "outputs": [],
      "payable": false,
      "stateMutability": "nonpayable",
      "type": "function"
    },
    {
      "constant": false,
      "inputs": [
        {
          "name": "_name",
          "type": "string"
        }
      ],
      "name": "upvoteASpeaker",
      "outputs": [],
      "payable": false,
      "stateMutability": "nonpayable",
      "type": "function"
    }
  ],
  "bytecode": "0x60806040523480156200001157600080fd5b5060405162001998380380620019988339810180604052810190808051820192919060200180519060200190929190505050806000806101000a81548173ffffffffffffffffffffffffffffffffffffffff021916908373ffffffffffffffffffffffffffffffffffffffff16021790555081600590805190602001906200009b929190620000a4565b50505062000153565b828054600181600116156101000203166002900490600052602060002090601f016020900481019282601f10620000e757805160ff191683800117855562000118565b8280016001018555821562000118579182015b8281111562000117578251825591602001919060010190620000fa565b5b5090506200012791906200012b565b5090565b6200015091905b808211156200014c57600081600090555060010162000132565b5090565b90565b61183580620001636000396000f3006080604052600436106100f1576000357c0100000000000000000000000000000000000000000000000000000000900463ffffffff1680632ee627fb146100f6578063323046b11461015f57806334758d52146101ef5780634201b1a71461025857806351ac0650146102c15780635600f04f146103a15780636d9385ba146104315780636fc84668146104c15780638f481e621461052e578063924c920e14610559578063a270a737146107da578063b3182ba51461086a578063c3acc4ad14610895578063e2d9dda3146108c0578063e897e3d7146109a0578063f851a440146109b7578063fd7e1bee14610a0e575b600080fd5b34801561010257600080fd5b5061015d600480360381019080803590602001908201803590602001908080601f0160208091040260200160405190810160405280939291908181526020018383808284378201915050505050509192919290505050610a9e565b005b34801561016b57600080fd5b50610174610b9c565b6040518080602001828103825283818151815260200191508051906020019080838360005b838110156101b4578082015181840152602081019050610199565b50505050905090810190601f1680156101e15780820380516001836020036101000a031916815260200191505b509250505060405180910390f35b3480156101fb57600080fd5b50610256600480360381019080803590602001908201803590602001908080601f0160208091040260200160405190810160405280939291908181526020018383808284378201915050505050509192919290505050610c3a565b005b34801561026457600080fd5b506102bf600480360381019080803590602001908201803590602001908080601f0160208091040260200160405190810160405280939291908181526020018383808284378201915050505050509192919290505050610d68565b005b3480156102cd57600080fd5b506102ec60048036038101908080359060200190929190505050610eb6565b604051808473ffffffffffffffffffffffffffffffffffffffff1673ffffffffffffffffffffffffffffffffffffffff16815260200180602001838152602001828103825284818151815260200191508051906020019080838360005b83811015610364578082015181840152602081019050610349565b50505050905090810190601f1680156103915780820380516001836020036101000a031916815260200191505b5094505050505060405180910390f35b3480156103ad57600080fd5b506103b6610fa7565b6040518080602001828103825283818151815260200191508051906020019080838360005b838110156103f65780820151818401526020810190506103db565b50505050905090810190601f1680156104235780820380516001836020036101000a031916815260200191505b509250505060405180910390f35b34801561043d57600080fd5b50610446611045565b6040518080602001828103825283818151815260200191508051906020019080838360005b8381101561048657808201518184015260208101905061046b565b50505050905090810190601f1680156104b35780820380516001836020036101000a031916815260200191505b509250505060405180910390f35b3480156104cd57600080fd5b506104ec600480360381019080803590602001909291905050506110e3565b604051808273ffffffffffffffffffffffffffffffffffffffff1673ffffffffffffffffffffffffffffffffffffffff16815260200191505060405180910390f35b34801561053a57600080fd5b50610543611121565b6040518082815260200191505060405180910390f35b34801561056557600080fd5b5061056e611127565b604051808973ffffffffffffffffffffffffffffffffffffffff1673ffffffffffffffffffffffffffffffffffffffff168152602001888152602001806020018060200180602001806020018060200187815260200186810386528c818151815260200191508051906020019080838360005b838110156105fc5780820151818401526020810190506105e1565b50505050905090810190601f1680156106295780820380516001836020036101000a031916815260200191505b5086810385528b818151815260200191508051906020019080838360005b83811015610662578082015181840152602081019050610647565b50505050905090810190601f16801561068f5780820380516001836020036101000a031916815260200191505b5086810384528a818151815260200191508051906020019080838360005b838110156106c85780820151818401526020810190506106ad565b50505050905090810190601f1680156106f55780820380516001836020036101000a031916815260200191505b50868103835289818151815260200191508051906020019080838360005b8381101561072e578082015181840152602081019050610713565b50505050905090810190601f16801561075b5780820380516001836020036101000a031916815260200191505b50868103825288818151815260200191508051906020019080838360005b83811015610794578082015181840152602081019050610779565b50505050905090810190601f1680156107c15780820380516001836020036101000a031916815260200191505b509d505050505050505050505050505060405180910390f35b3480156107e657600080fd5b506107ef61148c565b6040518080602001828103825283818151815260200191508051906020019080838360005b8381101561082f578082015181840152602081019050610814565b50505050905090810190601f16801561085c5780820380516001836020036101000a031916815260200191505b509250505060405180910390f35b34801561087657600080fd5b5061087f61152a565b6040518082815260200191505060405180910390f35b3480156108a157600080fd5b506108aa611530565b6040518082815260200191505060405180910390f35b3480156108cc57600080fd5b506108eb60048036038101908080359060200190929190505050611536565b604051808473ffffffffffffffffffffffffffffffffffffffff1673ffffffffffffffffffffffffffffffffffffffff16815260200180602001838152602001828103825284818151815260200191508051906020019080838360005b83811015610963578082015181840152602081019050610948565b50505050905090810190601f1680156109905780820380516001836020036101000a031916815260200191505b5094505050505060405180910390f35b3480156109ac57600080fd5b506109b5611667565b005b3480156109c357600080fd5b506109cc611669565b604051808273ffffffffffffffffffffffffffffffffffffffff1673ffffffffffffffffffffffffffffffffffffffff16815260200191505060405180910390f35b348015610a1a57600080fd5b50610a2361168e565b6040518080602001828103825283818151815260200191508051906020019080838360005b83811015610a63578082015181840152602081019050610a48565b50505050905090810190601f168015610a905780820380516001836020036101000a031916815260200191505b509250505060405180910390f35b610aa661172c565b33816000019073ffffffffffffffffffffffffffffffffffffffff16908173ffffffffffffffffffffffffffffffffffffffff16815250508181602001819052506003819080600181540180825580915050906001820390600052602060002090600302016000909192909190915060008201518160000160006101000a81548173ffffffffffffffffffffffffffffffffffffffff021916908373ffffffffffffffffffffffffffffffffffffffff1602179055506020820151816001019080519060200190610b78929190611764565b50604082015181600201555050506004600081548092919060010191905055505050565b60078054600181600116156101000203166002900480601f016020809104026020016040519081016040528092919081815260200182805460018160011615610100020316600290048015610c325780601f10610c0757610100808354040283529160200191610c32565b820191906000526020600020905b815481529060010190602001808311610c1557829003601f168201915b505050505081565b60013390806001815401808255809150509060018203906000526020600020016000909192909190916101000a81548173ffffffffffffffffffffffffffffffffffffffff021916908373ffffffffffffffffffffffffffffffffffffffff160217905550506002600081548092919060010191905055503373ffffffffffffffffffffffffffffffffffffffff167f47503399ee972fdc4325e73c9ccef5738f63faa4a739c9cd1c406f938cca8a04826040518080602001828103825283818151815260200191508051906020019080838360005b83811015610d2b578082015181840152602081019050610d10565b50505050905090810190601f168015610d585780820380516001836020036101000a031916815260200191505b509250505060405180910390a250565b60008090505b600380549050811015610eb257816040518082805190602001908083835b602083101515610db15780518252602082019150602081019050602083039250610d8c565b6001836020036101000a038019825116818451168082178552505050505050905001915050604051809103902060001916600382815481101515610df157fe5b90600052602060002090600302016001016040518082805460018160011615610100020316600290048015610e5d5780601f10610e3b576101008083540402835291820191610e5d565b820191906000526020600020905b815481529060010190602001808311610e49575b50509150506040518091039020600019161415610ea557600381815481101515610e8357fe5b9060005260206000209060030201600201600081548092919060010191905055505b8080600101915050610d6e565b5050565b600381815481101515610ec557fe5b90600052602060002090600302016000915090508060000160009054906101000a900473ffffffffffffffffffffffffffffffffffffffff1690806001018054600181600116156101000203166002900480601f016020809104026020016040519081016040528092919081815260200182805460018160011615610100020316600290048015610f975780601f10610f6c57610100808354040283529160200191610f97565b820191906000526020600020905b815481529060010190602001808311610f7a57829003601f168201915b5050505050908060020154905083565b60068054600181600116156101000203166002900480601f01602080910402602001604051908101604052809291908181526020018280546001816001161561010002031660029004801561103d5780601f106110125761010080835404028352916020019161103d565b820191906000526020600020905b81548152906001019060200180831161102057829003601f168201915b505050505081565b60058054600181600116156101000203166002900480601f0160208091040260200160405190810160405280929190818152602001828054600181600116156101000203166002900480156110db5780601f106110b0576101008083540402835291602001916110db565b820191906000526020600020905b8154815290600101906020018083116110be57829003601f168201915b505050505081565b6001818154811015156110f257fe5b906000526020600020016000915054906101000a900473ffffffffffffffffffffffffffffffffffffffff1681565b60025481565b600080606080606080606060008060009054906101000a900473ffffffffffffffffffffffffffffffffffffffff1660025460056006600760086009600a54858054600181600116156101000203166002900480601f0160208091040260200160405190810160405280929190818152602001828054600181600116156101000203166002900480156111fb5780601f106111d0576101008083540402835291602001916111fb565b820191906000526020600020905b8154815290600101906020018083116111de57829003601f168201915b50505050509550848054600181600116156101000203166002900480601f0160208091040260200160405190810160405280929190818152602001828054600181600116156101000203166002900480156112975780601f1061126c57610100808354040283529160200191611297565b820191906000526020600020905b81548152906001019060200180831161127a57829003601f168201915b50505050509450838054600181600116156101000203166002900480601f0160208091040260200160405190810160405280929190818152602001828054600181600116156101000203166002900480156113335780601f1061130857610100808354040283529160200191611333565b820191906000526020600020905b81548152906001019060200180831161131657829003601f168201915b50505050509350828054600181600116156101000203166002900480601f0160208091040260200160405190810160405280929190818152602001828054600181600116156101000203166002900480156113cf5780601f106113a4576101008083540402835291602001916113cf565b820191906000526020600020905b8154815290600101906020018083116113b257829003601f168201915b50505050509250818054600181600116156101000203166002900480601f01602080910402602001604051908101604052809291908181526020018280546001816001161561010002031660029004801561146b5780601f106114405761010080835404028352916020019161146b565b820191906000526020600020905b81548152906001019060200180831161144e57829003601f168201915b50505050509150975097509750975097509750975097509091929394959697565b60088054600181600116156101000203166002900480601f0160208091040260200160405190810160405280929190818152602001828054600181600116156101000203166002900480156115225780601f106114f757610100808354040283529160200191611522565b820191906000526020600020905b81548152906001019060200180831161150557829003601f168201915b505050505081565b600a5481565b60045481565b60006060600060038481548110151561154b57fe5b906000526020600020906003020160000160009054906101000a900473ffffffffffffffffffffffffffffffffffffffff1660038581548110151561158c57fe5b90600052602060002090600302016001016003868154811015156115ac57fe5b906000526020600020906003020160020154818054600181600116156101000203166002900480601f0160208091040260200160405190810160405280929190818152602001828054600181600116156101000203166002900480156116535780601f1061162857610100808354040283529160200191611653565b820191906000526020600020905b81548152906001019060200180831161163657829003601f168201915b505050505091509250925092509193909250565b565b6000809054906101000a900473ffffffffffffffffffffffffffffffffffffffff1681565b60098054600181600116156101000203166002900480601f0160208091040260200160405190810160405280929190818152602001828054600181600116156101000203166002900480156117245780601f106116f957610100808354040283529160200191611724565b820191906000526020600020905b81548152906001019060200180831161170757829003601f168201915b505050505081565b606060405190810160405280600073ffffffffffffffffffffffffffffffffffffffff16815260200160608152602001600081525090565b828054600181600116156101000203166002900490600052602060002090601f016020900481019282601f106117a557805160ff19168380011785556117d3565b828001600101855582156117d3579182015b828111156117d25782518255916020019190600101906117b7565b5b5090506117e091906117e4565b5090565b61180691905b808211156118025760008160009055506001016117ea565b5090565b905600a165627a7a72305820d8017fbfcceffa3d6eecf57675e4bd4da52e3baf61f64c51b1fbe7148601da320029",
  "source": "pragma solidity ^0.4.24;\n\ncontract Home {\n\n    address[] public deployedConferences;\n    address[] public members;\n    uint public totalMembers;\n\n    event JoinedDXCon(address indexed memAddr, string name);\n    event ConferencesDeployed(address[] indexed depConf);\n\n    function createConference(string _confName) public {\n        address newConference = new Conference(_confName, msg.sender);\n        deployedConferences.push(newConference);\n    }\n\n    function getDeployedConferences() public view returns(address[]) {\n        return deployedConferences;\n    }\n\n    function joinDXCon(string _name) public {\n        members.push(msg.sender);\n        totalMembers++;\n\n        emit JoinedDXCon(msg.sender, _name);\n    }\n}\n\ncontract Conference {\n\n    address public admin;\n    address[] public confMembers;\n    uint public totalConfMembers;\n    Speaker[] public speakers;\n    uint public numberOfSpeakers;\n    string public conferenceName;\n    string public url;\n    string public date;\n    string public venue;\n    string public freezeTime;\n    uint public entryFees;\n    mapping(uint => string) topics;\n\n    event JoinedConf(address indexed memAddr, string name);\n\n    constructor(string _confName, address _creator) public {\n        admin = _creator;\n        conferenceName = _confName;\n    }\n\n    struct Speaker {\n        address speaker;\n        string speakerName;\n        uint votes;\n    }\n\n    function joinConference(string _name) public {\n        confMembers.push(msg.sender);\n        totalConfMembers++;\n\n        emit JoinedConf(msg.sender, _name);\n    }\n\n    function getConferenceDetails() public view\n        returns(address, uint, string, string, string, string, string, uint) {\n        return (\n            admin,\n            totalConfMembers,\n            conferenceName,\n            url,\n            date,\n            venue,\n            freezeTime,\n            entryFees\n        );\n    }\n\n    function sortSpeakerList() public {\n        //Some optimized mechanism to sort the array of Speaker structs,\n        //based on their number of votes\n    }\n\n    function getSpeaker(uint index) public view returns(address, string, uint) {\n        return (\n            speakers[index].speaker,\n            speakers[index].speakerName,\n            speakers[index].votes\n        );\n    }\n\n    function applyAsSpeaker(string _name) public {\n        Speaker memory newSpeaker;\n        newSpeaker.speaker = msg.sender;\n        newSpeaker.speakerName = _name;\n        speakers.push(newSpeaker);\n        numberOfSpeakers++;\n    }\n\n    function upvoteASpeaker(string _name) public {\n        for(uint i=0;i<speakers.length;i++) {\n            if(keccak256(speakers[i].speakerName) == keccak256(_name)) speakers[i].votes++;\n        }\n    }\n\n}\n",
  "sourcePath": "/home/desciple/Amaal/DXCon/contracts/Conference.sol",
  "compiler": {
    "name": "solc",
    "version": "0.4.24+commit.e67f0147.Emscripten.clang"
  },
  "schemaVersion": "2.0.1",
  "updatedAt": "2018-09-22T10:26:46.435Z"
}