{
  "contractName": "Conference",
  "abi": [
    {
      "constant": true,
      "inputs": [
        {
          "name": "",
          "type": "uint256"
        }
      ],
      "name": "speakers",
      "outputs": [
        {
          "name": "speakerName",
          "type": "string"
        },
        {
          "name": "votes",
          "type": "uint256"
        }
      ],
      "payable": false,
      "stateMutability": "view",
      "type": "function"
    },
    {
      "constant": true,
      "inputs": [
        {
          "name": "",
          "type": "uint256"
        }
      ],
      "name": "members",
      "outputs": [
        {
          "name": "memberName",
          "type": "string"
        }
      ],
      "payable": false,
      "stateMutability": "view",
      "type": "function"
    },
    {
      "inputs": [],
      "payable": false,
      "stateMutability": "nonpayable",
      "type": "constructor"
    },
    {
      "constant": false,
      "inputs": [],
      "name": "joinConference",
      "outputs": [],
      "payable": false,
      "stateMutability": "nonpayable",
      "type": "function"
    },
    {
      "constant": true,
      "inputs": [],
      "name": "getDetails",
      "outputs": [],
      "payable": false,
      "stateMutability": "view",
      "type": "function"
    },
    {
      "constant": true,
      "inputs": [],
      "name": "viewSpecificMembers",
      "outputs": [],
      "payable": false,
      "stateMutability": "view",
      "type": "function"
    },
    {
      "constant": false,
      "inputs": [],
      "name": "proposeSpeakerList",
      "outputs": [],
      "payable": false,
      "stateMutability": "nonpayable",
      "type": "function"
    },
    {
      "constant": false,
      "inputs": [],
      "name": "applyAsSpeaker",
      "outputs": [],
      "payable": false,
      "stateMutability": "nonpayable",
      "type": "function"
    },
    {
      "constant": false,
      "inputs": [],
      "name": "upvoteASpeaker",
      "outputs": [],
      "payable": false,
      "stateMutability": "nonpayable",
      "type": "function"
    }
  ],
  "bytecode": "0x608060405234801561001057600080fd5b50610434806100206000396000f30060806040526004361061008e576000357c0100000000000000000000000000000000000000000000000000000000900463ffffffff1680630d7994f31461009357806323bd4cbd146100aa5780634c5983fb146100c15780634df153d1146100d857806351ac0650146100ef5780635daf08ca1461019c5780638753897814610242578063fbbf93a014610259575b600080fd5b34801561009f57600080fd5b506100a8610270565b005b3480156100b657600080fd5b506100bf610272565b005b3480156100cd57600080fd5b506100d6610274565b005b3480156100e457600080fd5b506100ed610276565b005b3480156100fb57600080fd5b5061011a60048036038101908080359060200190929190505050610278565b6040518080602001838152602001828103825284818151815260200191508051906020019080838360005b83811015610160578082015181840152602081019050610145565b50505050905090810190601f16801561018d5780820380516001836020036101000a031916815260200191505b50935050505060405180910390f35b3480156101a857600080fd5b506101c760048036038101908080359060200190929190505050610343565b6040518080602001828103825283818151815260200191508051906020019080838360005b838110156102075780820151818401526020810190506101ec565b50505050905090810190601f1680156102345780820380516001836020036101000a031916815260200191505b509250505060405180910390f35b34801561024e57600080fd5b50610257610404565b005b34801561026557600080fd5b5061026e610406565b005b565b565b565b565b60018181548110151561028757fe5b9060005260206000209060020201600091509050806000018054600181600116156101000203166002900480601f0160208091040260200160405190810160405280929190818152602001828054600181600116156101000203166002900480156103335780601f1061030857610100808354040283529160200191610333565b820191906000526020600020905b81548152906001019060200180831161031657829003601f168201915b5050505050908060010154905082565b60008181548110151561035257fe5b90600052602060002001600091509050806000018054600181600116156101000203166002900480601f0160208091040260200160405190810160405280929190818152602001828054600181600116156101000203166002900480156103fa5780601f106103cf576101008083540402835291602001916103fa565b820191906000526020600020905b8154815290600101906020018083116103dd57829003601f168201915b5050505050905081565b565b5600a165627a7a72305820c741f8db75dda495db100079d00d627ad904bbfd807492ea775fcf797e747f390029",
  "source": "pragma solidity ^0.4.20;\n\n\ncontract Home {\n\n    constructor() public {\n\n    }\n\n    function addConference() public {\n\n    }\n\n    function joinDxCon() public {\n\n    }\n\n    function viewConference() public view {\n\n    }\n\n    function viewGeneralMembers() public view {\n\n    }\n\n}\n\n\ncontract Conference {\n\n    Member[] public members;\n    Speaker[] public speakers;\n\n    constructor() public {\n\n    }\n\n    struct Member {\n        string memberName;\n    }\n\n    struct Speaker {\n        string speakerName;\n        uint votes;\n    }\n\n    struct Conference {\n        string conferenceNxame;\n        string url;\n        string date;\n        string venue;\n        string freezeTime;\n    }\n\n    function joinConference() public {\n\n    }\n\n    function getDetails() public view {\n\n    }\n\n    function viewSpecificMembers() public view {\n\n    }\n\n    function proposeSpeakerList() public {\n\n    }\n\n    function applyAsSpeaker() public {\n\n    }\n\n    function upvoteASpeaker() public {\n\n    }\n\n}\n",
  "sourcePath": "/home/desciple/Amaal/DXCon/contracts/Conference.sol",
  "compiler": {
    "name": "solc",
    "version": "0.4.24+commit.e67f0147.Emscripten.clang"
  },
  "schemaVersion": "2.0.1",
  "updatedAt": "2018-08-20T14:54:15.874Z"
}