{
  "contractName": "Home",
  "abi": [
    {
      "inputs": [],
      "payable": false,
      "stateMutability": "nonpayable",
      "type": "constructor"
    },
    {
      "constant": false,
      "inputs": [],
      "name": "addConference",
      "outputs": [],
      "payable": false,
      "stateMutability": "nonpayable",
      "type": "function"
    },
    {
      "constant": false,
      "inputs": [],
      "name": "joinDxCon",
      "outputs": [],
      "payable": false,
      "stateMutability": "nonpayable",
      "type": "function"
    },
    {
      "constant": true,
      "inputs": [],
      "name": "viewConference",
      "outputs": [],
      "payable": false,
      "stateMutability": "view",
      "type": "function"
    },
    {
      "constant": true,
      "inputs": [],
      "name": "viewGeneralMembers",
      "outputs": [],
      "payable": false,
      "stateMutability": "view",
      "type": "function"
    }
  ],
  "bytecode": "0x608060405234801561001057600080fd5b5060e68061001f6000396000f300608060405260043610605d576000357c0100000000000000000000000000000000000000000000000000000000900463ffffffff1680630ea571cf1460625780632e0abd9714607657806366f57e2b14608a578063a215012f14609e575b600080fd5b348015606d57600080fd5b50607460b2565b005b348015608157600080fd5b50608860b4565b005b348015609557600080fd5b50609c60b6565b005b34801560a957600080fd5b5060b060b8565b005b565b565b565b5600a165627a7a72305820143e3cbffaa33a79de22fcdd3cb77762c518a6bdc32a142bb337e803abf2f1490029",
  "source": "pragma solidity ^0.4.20;\n\n\ncontract Home {\n\n    constructor() public {\n\n    }\n\n    function addConference() public {\n\n    }\n\n    function joinDxCon() public {\n\n    }\n\n    function viewConference() public view {\n\n    }\n\n    function viewGeneralMembers() public view {\n\n    }\n\n}\n\n\ncontract Conference {\n\n    Member[] public members;\n    Speaker[] public speakers;\n\n    constructor() public {\n\n    }\n\n    struct Member {\n        string memberName;\n    }\n\n    struct Speaker {\n        string speakerName;\n        uint votes;\n    }\n\n    struct Conference {\n        string conferenceNxame;\n        string url;\n        string date;\n        string venue;\n        string freezeTime;\n    }\n\n    function joinConference() public {\n\n    }\n\n    function getDetails() public view {\n\n    }\n\n    function viewSpecificMembers() public view {\n\n    }\n\n    function proposeSpeakerList() public {\n\n    }\n\n    function applyAsSpeaker() public {\n\n    }\n\n    function upvoteASpeaker() public {\n\n    }\n\n}\n",
  "sourcePath": "/home/desciple/Amaal/DXCon/contracts/Conference.sol",
  "compiler": {
    "name": "solc",
    "version": "0.4.24+commit.e67f0147.Emscripten.clang"
  },
  "schemaVersion": "2.0.1",
  "updatedAt": "2018-08-20T14:48:35.118Z"
}