{
  "contractName": "Home",
  "abi": [
    {
      "constant": true,
      "inputs": [
        {
          "name": "",
          "type": "uint256"
        }
      ],
      "name": "deployedConferences",
      "outputs": [
        {
          "name": "",
          "type": "address"
        }
      ],
      "payable": false,
      "stateMutability": "view",
      "type": "function"
    },
    {
      "constant": true,
      "inputs": [
        {
          "name": "",
          "type": "uint256"
        }
      ],
      "name": "genMembers",
      "outputs": [
        {
          "name": "member",
          "type": "address"
        },
        {
          "name": "memberName",
          "type": "string"
        }
      ],
      "payable": false,
      "stateMutability": "view",
      "type": "function"
    },
    {
      "constant": false,
      "inputs": [
        {
          "name": "confName",
          "type": "string"
        }
      ],
      "name": "createConference",
      "outputs": [],
      "payable": false,
      "stateMutability": "nonpayable",
      "type": "function"
    },
    {
      "constant": true,
      "inputs": [],
      "name": "getDeployedConferences",
      "outputs": [
        {
          "name": "",
          "type": "address[]"
        }
      ],
      "payable": false,
      "stateMutability": "view",
      "type": "function"
    },
    {
      "constant": false,
      "inputs": [
        {
          "name": "name",
          "type": "string"
        }
      ],
      "name": "joinDxCon",
      "outputs": [],
      "payable": false,
      "stateMutability": "nonpayable",
      "type": "function"
    }
  ],
  "bytecode": "0x608060405234801561001057600080fd5b50611ae5806100206000396000f30060806040526004361061006d576000357c0100000000000000000000000000000000000000000000000000000000900463ffffffff1680636ad038011461007257806378117f26146100df57806389bbcce21461014b578063e3f0f8e3146101b4578063f8e12b281461028d575b600080fd5b34801561007e57600080fd5b5061009d600480360381019080803590602001909291905050506102f6565b604051808273ffffffffffffffffffffffffffffffffffffffff1673ffffffffffffffffffffffffffffffffffffffff16815260200191505060405180910390f35b3480156100eb57600080fd5b506100f4610334565b6040518080602001828103825283818151815260200191508051906020019060200280838360005b8381101561013757808201518184015260208101905061011c565b505050509050019250505060405180910390f35b34801561015757600080fd5b506101b2600480360381019080803590602001908201803590602001908080601f01602080910402602001604051908101604052809392919081815260200183838082843782019150505050505091929192905050506103c2565b005b3480156101c057600080fd5b506101df600480360381019080803590602001909291905050506104f9565b604051808373ffffffffffffffffffffffffffffffffffffffff1673ffffffffffffffffffffffffffffffffffffffff16815260200180602001828103825283818151815260200191508051906020019080838360005b83811015610251578082015181840152602081019050610236565b50505050905090810190601f16801561027e5780820380516001836020036101000a031916815260200191505b50935050505060405180910390f35b34801561029957600080fd5b506102f4600480360381019080803590602001908201803590602001908080601f01602080910402602001604051908101604052809392919081815260200183838082843782019150505050505091929192905050506105e4565b005b60008181548110151561030557fe5b906000526020600020016000915054906101000a900473ffffffffffffffffffffffffffffffffffffffff1681565b606060008054806020026020016040519081016040528092919081815260200182805480156103b857602002820191906000526020600020905b8160009054906101000a900473ffffffffffffffffffffffffffffffffffffffff1673ffffffffffffffffffffffffffffffffffffffff168152602001906001019080831161036e575b5050505050905090565b600081336103ce610706565b80806020018373ffffffffffffffffffffffffffffffffffffffff1673ffffffffffffffffffffffffffffffffffffffff168152602001828103825284818151815260200191508051906020019080838360005b8381101561043d578082015181840152602081019050610422565b50505050905090810190601f16801561046a5780820380516001836020036101000a031916815260200191505b509350505050604051809103906000f08015801561048c573d6000803e3d6000fd5b50905060008190806001815401808255809150509060018203906000526020600020016000909192909190916101000a81548173ffffffffffffffffffffffffffffffffffffffff021916908373ffffffffffffffffffffffffffffffffffffffff160217905550505050565b60018181548110151561050857fe5b90600052602060002090600202016000915090508060000160009054906101000a900473ffffffffffffffffffffffffffffffffffffffff1690806001018054600181600116156101000203166002900480601f0160208091040260200160405190810160405280929190818152602001828054600181600116156101000203166002900480156105da5780601f106105af576101008083540402835291602001916105da565b820191906000526020600020905b8154815290600101906020018083116105bd57829003601f168201915b5050505050905082565b6000338160000160006101000a81548173ffffffffffffffffffffffffffffffffffffffff021916908373ffffffffffffffffffffffffffffffffffffffff16021790555081816001019080519060200190610641929190610716565b50600181908060018154018082558091505090600182039060005260206000209060020201600090919290919091506000820160009054906101000a900473ffffffffffffffffffffffffffffffffffffffff168160000160006101000a81548173ffffffffffffffffffffffffffffffffffffffff021916908373ffffffffffffffffffffffffffffffffffffffff160217905550600182018160010190805460018160011615610100020316600290046106fe929190610796565b505050505050565b6040516112778061084383390190565b828054600181600116156101000203166002900490600052602060002090601f016020900481019282601f1061075757805160ff1916838001178555610785565b82800160010185558215610785579182015b82811115610784578251825591602001919060010190610769565b5b509050610792919061081d565b5090565b828054600181600116156101000203166002900490600052602060002090601f016020900481019282601f106107cf578054855561080c565b8280016001018555821561080c57600052602060002091601f016020900482015b8281111561080b5782548255916001019190600101906107f0565b5b509050610819919061081d565b5090565b61083f91905b8082111561083b576000816000905550600101610823565b5090565b905600608060405234801561001057600080fd5b5060405162001277380380620012778339810180604052810190808051820192919060200180519060200190929190505050806000806101000a81548173ffffffffffffffffffffffffffffffffffffffff021916908373ffffffffffffffffffffffffffffffffffffffff16021790555081600390805190602001906100989291906100a0565b505050610145565b828054600181600116156101000203166002900490600052602060002090601f016020900481019282601f106100e157805160ff191683800117855561010f565b8280016001018555821561010f579182015b8281111561010e5782518255916020019190600101906100f3565b5b50905061011c9190610120565b5090565b61014291905b8082111561013e576000816000905550600101610126565b5090565b90565b61112280620001556000396000f3006080604052600436106100c5576000357c0100000000000000000000000000000000000000000000000000000000900463ffffffff1680632ee627fb146100ca578063323046b11461013357806334758d52146101c35780634201b1a71461022c5780634c5983fb1461029557806351ac0650146102ac5780635600f04f1461038c5780636d9385ba1461041c5780636fc84668146104ac578063924c920e14610585578063a270a7371461059c578063f851a4401461062c578063fd7e1bee14610683575b600080fd5b3480156100d657600080fd5b50610131600480360381019080803590602001908201803590602001908080601f0160208091040260200160405190810160405280939291908181526020018383808284378201915050505050509192919290505050610713565b005b34801561013f57600080fd5b5061014861083f565b6040518080602001828103825283818151815260200191508051906020019080838360005b8381101561018857808201518184015260208101905061016d565b50505050905090810190601f1680156101b55780820380516001836020036101000a031916815260200191505b509250505060405180910390f35b3480156101cf57600080fd5b5061022a600480360381019080803590602001908201803590602001908080601f01602080910402602001604051908101604052809392919081815260200183838082843782019150505050505091929192905050506108dd565b005b34801561023857600080fd5b50610293600480360381019080803590602001908201803590602001908080601f01602080910402602001604051908101604052809392919081815260200183838082843782019150505050505091929192905050506109ff565b005b3480156102a157600080fd5b506102aa610b4d565b005b3480156102b857600080fd5b506102d760048036038101908080359060200190929190505050610b4f565b604051808473ffffffffffffffffffffffffffffffffffffffff1673ffffffffffffffffffffffffffffffffffffffff16815260200180602001838152602001828103825284818151815260200191508051906020019080838360005b8381101561034f578082015181840152602081019050610334565b50505050905090810190601f16801561037c5780820380516001836020036101000a031916815260200191505b5094505050505060405180910390f35b34801561039857600080fd5b506103a1610c40565b6040518080602001828103825283818151815260200191508051906020019080838360005b838110156103e15780820151818401526020810190506103c6565b50505050905090810190601f16801561040e5780820380516001836020036101000a031916815260200191505b509250505060405180910390f35b34801561042857600080fd5b50610431610cde565b6040518080602001828103825283818151815260200191508051906020019080838360005b83811015610471578082015181840152602081019050610456565b50505050905090810190601f16801561049e5780820380516001836020036101000a031916815260200191505b509250505060405180910390f35b3480156104b857600080fd5b506104d760048036038101908080359060200190929190505050610d7c565b604051808373ffffffffffffffffffffffffffffffffffffffff1673ffffffffffffffffffffffffffffffffffffffff16815260200180602001828103825283818151815260200191508051906020019080838360005b8381101561054957808201518184015260208101905061052e565b50505050905090810190601f1680156105765780820380516001836020036101000a031916815260200191505b50935050505060405180910390f35b34801561059157600080fd5b5061059a610e67565b005b3480156105a857600080fd5b506105b1610e69565b6040518080602001828103825283818151815260200191508051906020019080838360005b838110156105f15780820151818401526020810190506105d6565b50505050905090810190601f16801561061e5780820380516001836020036101000a031916815260200191505b509250505060405180910390f35b34801561063857600080fd5b50610641610f07565b604051808273ffffffffffffffffffffffffffffffffffffffff1673ffffffffffffffffffffffffffffffffffffffff16815260200191505060405180910390f35b34801561068f57600080fd5b50610698610f2c565b6040518080602001828103825283818151815260200191508051906020019080838360005b838110156106d85780820151818401526020810190506106bd565b50505050905090810190601f1680156107055780820380516001836020036101000a031916815260200191505b509250505060405180910390f35b6000338160000160006101000a81548173ffffffffffffffffffffffffffffffffffffffff021916908373ffffffffffffffffffffffffffffffffffffffff16021790555081816001019080519060200190610770929190610fca565b50600281908060018154018082558091505090600182039060005260206000209060030201600090919290919091506000820160009054906101000a900473ffffffffffffffffffffffffffffffffffffffff168160000160006101000a81548173ffffffffffffffffffffffffffffffffffffffff021916908373ffffffffffffffffffffffffffffffffffffffff1602179055506001820181600101908054600181600116156101000203166002900461082d92919061104a565b50600282015481600201555050505050565b60058054600181600116156101000203166002900480601f0160208091040260200160405190810160405280929190818152602001828054600181600116156101000203166002900480156108d55780601f106108aa576101008083540402835291602001916108d5565b820191906000526020600020905b8154815290600101906020018083116108b857829003601f168201915b505050505081565b6000338160000160006101000a81548173ffffffffffffffffffffffffffffffffffffffff021916908373ffffffffffffffffffffffffffffffffffffffff1602179055508181600101908051906020019061093a929190610fca565b50600181908060018154018082558091505090600182039060005260206000209060020201600090919290919091506000820160009054906101000a900473ffffffffffffffffffffffffffffffffffffffff168160000160006101000a81548173ffffffffffffffffffffffffffffffffffffffff021916908373ffffffffffffffffffffffffffffffffffffffff160217905550600182018160010190805460018160011615610100020316600290046109f792919061104a565b505050505050565b60008090505b600280549050811015610b4957816040518082805190602001908083835b602083101515610a485780518252602082019150602081019050602083039250610a23565b6001836020036101000a038019825116818451168082178552505050505050905001915050604051809103902060001916600282815481101515610a8857fe5b90600052602060002090600302016001016040518082805460018160011615610100020316600290048015610af45780601f10610ad2576101008083540402835291820191610af4565b820191906000526020600020905b815481529060010190602001808311610ae0575b50509150506040518091039020600019161415610b3c57600281815481101515610b1a57fe5b9060005260206000209060030201600201600081548092919060010191905055505b8080600101915050610a05565b5050565b565b600281815481101515610b5e57fe5b90600052602060002090600302016000915090508060000160009054906101000a900473ffffffffffffffffffffffffffffffffffffffff1690806001018054600181600116156101000203166002900480601f016020809104026020016040519081016040528092919081815260200182805460018160011615610100020316600290048015610c305780601f10610c0557610100808354040283529160200191610c30565b820191906000526020600020905b815481529060010190602001808311610c1357829003601f168201915b5050505050908060020154905083565b60048054600181600116156101000203166002900480601f016020809104026020016040519081016040528092919081815260200182805460018160011615610100020316600290048015610cd65780601f10610cab57610100808354040283529160200191610cd6565b820191906000526020600020905b815481529060010190602001808311610cb957829003601f168201915b505050505081565b60038054600181600116156101000203166002900480601f016020809104026020016040519081016040528092919081815260200182805460018160011615610100020316600290048015610d745780601f10610d4957610100808354040283529160200191610d74565b820191906000526020600020905b815481529060010190602001808311610d5757829003601f168201915b505050505081565b600181815481101515610d8b57fe5b90600052602060002090600202016000915090508060000160009054906101000a900473ffffffffffffffffffffffffffffffffffffffff1690806001018054600181600116156101000203166002900480601f016020809104026020016040519081016040528092919081815260200182805460018160011615610100020316600290048015610e5d5780601f10610e3257610100808354040283529160200191610e5d565b820191906000526020600020905b815481529060010190602001808311610e4057829003601f168201915b5050505050905082565b565b60068054600181600116156101000203166002900480601f016020809104026020016040519081016040528092919081815260200182805460018160011615610100020316600290048015610eff5780601f10610ed457610100808354040283529160200191610eff565b820191906000526020600020905b815481529060010190602001808311610ee257829003601f168201915b505050505081565b6000809054906101000a900473ffffffffffffffffffffffffffffffffffffffff1681565b60078054600181600116156101000203166002900480601f016020809104026020016040519081016040528092919081815260200182805460018160011615610100020316600290048015610fc25780601f10610f9757610100808354040283529160200191610fc2565b820191906000526020600020905b815481529060010190602001808311610fa557829003601f168201915b505050505081565b828054600181600116156101000203166002900490600052602060002090601f016020900481019282601f1061100b57805160ff1916838001178555611039565b82800160010185558215611039579182015b8281111561103857825182559160200191906001019061101d565b5b50905061104691906110d1565b5090565b828054600181600116156101000203166002900490600052602060002090601f016020900481019282601f1061108357805485556110c0565b828001600101855582156110c057600052602060002091601f016020900482015b828111156110bf5782548255916001019190600101906110a4565b5b5090506110cd91906110d1565b5090565b6110f391905b808211156110ef5760008160009055506001016110d7565b5090565b905600a165627a7a7230582086278c8a9ca39db6e5debbcbffd84aaaf92a68da2d98a0ac24aaff40cb3280e80029a165627a7a72305820019a89b4982b04e966ac4f8bc969caaecbe603a6ee361f0ba29070a596095f3b0029",
  "source": "pragma solidity ^0.4.24;\n\ncontract Home {\n\n    struct GenMember {\n        address member;\n        string memberName;\n    }\n\n    address[] public deployedConferences;\n    GenMember[] public genMembers;\n\n    function createConference(string confName) public {\n        address newConference = new Conference(confName, msg.sender);\n        deployedConferences.push(newConference);\n    }\n\n    function getDeployedConferences() public view returns(address[]) {\n        return deployedConferences;\n    }\n\n  /**\n   *function getGeneralMembers() public pure returns(GenMember[]) {\n   *     return genMembers;\n   *}\n   */\n\n    function joinDxCon(string name) public {\n        GenMember storage newMember;\n        newMember.member = msg.sender;\n        newMember.memberName = name;\n        genMembers.push(newMember);\n    }\n}\n\ncontract Conference {\n\n    address public admin;\n    ConfMember[] public confMembers;\n    Speaker[] public speakers;\n    string public conferenceName;\n    string public url;\n    string public date;\n    string public venue;\n    string public freezeTime;\n\n    constructor(string confName, address creator) public {\n        admin = creator;\n        conferenceName = confName;\n    }\n\n    struct ConfMember {\n        address member;\n        string memberName;\n    }\n\n    struct Speaker {\n        address speaker;\n        string speakerName;\n        uint votes;\n    }\n\n    function joinConference(string name) public {\n        ConfMember storage newMember;\n        newMember.member = msg.sender;\n        newMember.memberName = name;\n        confMembers.push(newMember);\n    }\n\n    function getConferenceDetails() public view {\n\n    }\n /**\n  *   function getSpecificMembers() public view {\n  *\n  * }\n  */\n    function proposeSpeakerList() public {\n\n    }\n\n    function applyAsSpeaker(string name) public {\n        Speaker storage newSpeaker;\n        newSpeaker.speaker = msg.sender;\n        newSpeaker.speakerName = name;\n        speakers.push(newSpeaker);\n    }\n\n    function upvoteASpeaker(string name) public {\n        for(uint i=0;i<speakers.length;i++) {\n            if(keccak256(speakers[i].speakerName) == keccak256(name)) speakers[i].votes++;\n        }\n    }\n\n}\n",
  "sourcePath": "/home/desciple/Amaal/DXCon/contracts/Conference.sol",
  "compiler": {
    "name": "solc",
    "version": "0.4.24+commit.e67f0147.Emscripten.clang"
  },
  "schemaVersion": "2.0.1",
  "updatedAt": "2018-08-23T16:53:49.354Z"
}